{
  "contractName": "Marketplace",
  "abi": [
    {
      "inputs": [],
      "stateMutability": "nonpayable",
      "type": "constructor"
    },
    {
      "anonymous": false,
      "inputs": [
        {
          "indexed": false,
          "internalType": "uint256",
          "name": "id",
          "type": "uint256"
        },
        {
          "indexed": false,
          "internalType": "string",
          "name": "name",
          "type": "string"
        },
        {
          "indexed": false,
          "internalType": "uint256",
          "name": "price",
          "type": "uint256"
        },
        {
          "indexed": false,
          "internalType": "string",
          "name": "imageHash",
          "type": "string"
        },
        {
          "indexed": false,
          "internalType": "string",
          "name": "description",
          "type": "string"
        },
        {
          "indexed": false,
          "internalType": "address",
          "name": "owner",
          "type": "address"
        },
        {
          "indexed": false,
          "internalType": "bool",
          "name": "purchased",
          "type": "bool"
        }
      ],
      "name": "ProductCreated",
      "type": "event"
    },
    {
      "anonymous": false,
      "inputs": [
        {
          "indexed": false,
          "internalType": "uint256",
          "name": "id",
          "type": "uint256"
        },
        {
          "indexed": false,
          "internalType": "string",
          "name": "name",
          "type": "string"
        },
        {
          "indexed": false,
          "internalType": "uint256",
          "name": "price",
          "type": "uint256"
        },
        {
          "indexed": false,
          "internalType": "string",
          "name": "imageHash",
          "type": "string"
        },
        {
          "indexed": false,
          "internalType": "string",
          "name": "description",
          "type": "string"
        },
        {
          "indexed": false,
          "internalType": "address",
          "name": "owner",
          "type": "address"
        },
        {
          "indexed": false,
          "internalType": "bool",
          "name": "purchased",
          "type": "bool"
        }
      ],
      "name": "ProductPurchased",
      "type": "event"
    },
    {
      "inputs": [],
      "name": "name",
      "outputs": [
        {
          "internalType": "string",
          "name": "",
          "type": "string"
        }
      ],
      "stateMutability": "view",
      "type": "function",
      "constant": true
    },
    {
      "inputs": [],
      "name": "owner",
      "outputs": [
        {
          "internalType": "address",
          "name": "",
          "type": "address"
        }
      ],
      "stateMutability": "view",
      "type": "function",
      "constant": true
    },
    {
      "inputs": [],
      "name": "productCount",
      "outputs": [
        {
          "internalType": "uint256",
          "name": "",
          "type": "uint256"
        }
      ],
      "stateMutability": "view",
      "type": "function",
      "constant": true
    },
    {
      "inputs": [
        {
          "internalType": "uint256",
          "name": "",
          "type": "uint256"
        }
      ],
      "name": "products",
      "outputs": [
        {
          "internalType": "uint256",
          "name": "id",
          "type": "uint256"
        },
        {
          "internalType": "string",
          "name": "name",
          "type": "string"
        },
        {
          "internalType": "uint256",
          "name": "price",
          "type": "uint256"
        },
        {
          "internalType": "string",
          "name": "imageHash",
          "type": "string"
        },
        {
          "internalType": "string",
          "name": "description",
          "type": "string"
        },
        {
          "internalType": "address",
          "name": "owner",
          "type": "address"
        },
        {
          "internalType": "bool",
          "name": "purchased",
          "type": "bool"
        }
      ],
      "stateMutability": "view",
      "type": "function",
      "constant": true
    },
    {
      "inputs": [
        {
          "internalType": "string",
          "name": "_name",
          "type": "string"
        },
        {
          "internalType": "string",
          "name": "_imageHash",
          "type": "string"
        },
        {
          "internalType": "uint256",
          "name": "_price",
          "type": "uint256"
        },
        {
          "internalType": "string",
          "name": "_description",
          "type": "string"
        }
      ],
      "name": "createProduct",
      "outputs": [],
      "stateMutability": "nonpayable",
      "type": "function"
    },
    {
      "inputs": [
        {
          "internalType": "uint256",
          "name": "_id",
          "type": "uint256"
        }
      ],
      "name": "purchaseProduct",
      "outputs": [],
      "stateMutability": "payable",
      "type": "function",
      "payable": true
    }
  ],
  "bytecode": "0x608060405260006002553480156200001657600080fd5b506040518060400160405280600881526020017f457465726e6974790000000000000000000000000000000000000000000000008152506000908051906020019062000064929190620000ac565b5033600160006101000a81548173ffffffffffffffffffffffffffffffffffffffff021916908373ffffffffffffffffffffffffffffffffffffffff160217905550620001c1565b828054620000ba906200015c565b90600052602060002090601f016020900481019282620000de57600085556200012a565b82601f10620000f957805160ff19168380011785556200012a565b828001600101855582156200012a579182015b82811115620001295782518255916020019190600101906200010c565b5b5090506200013991906200013d565b5090565b5b80821115620001585760008160009055506001016200013e565b5090565b600060028204905060018216806200017557607f821691505b602082108114156200018c576200018b62000192565b5b50919050565b7f4e487b7100000000000000000000000000000000000000000000000000000000600052602260045260246000fd5b61109a80620001d16000396000f3fe6080604052600436106100555760003560e01c806306fdde031461005a57806312c891961461008557806338e76a03146100ae5780637acc0b20146100ca5780638da5cb5b1461010d578063e0f6ef8714610138575b600080fd5b34801561006657600080fd5b5061006f610163565b60405161007c9190610d32565b60405180910390f35b34801561009157600080fd5b506100ac60048036038101906100a79190610bc9565b6101f1565b005b6100c860048036038101906100c39190610c84565b6103b8565b005b3480156100d657600080fd5b506100f160048036038101906100ec9190610c84565b61086e565b6040516101049796959493929190610d6f565b60405180910390f35b34801561011957600080fd5b50610122610a75565b60405161012f9190610d17565b60405180910390f35b34801561014457600080fd5b5061014d610a9b565b60405161015a9190610d54565b60405180910390f35b6000805461017090610eef565b80601f016020809104026020016040519081016040528092919081815260200182805461019c90610eef565b80156101e95780601f106101be576101008083540402835291602001916101e9565b820191906000526020600020905b8154815290600101906020018083116101cc57829003601f168201915b505050505081565b60008451116101ff57600080fd5b6000821161020c57600080fd5b6002600081548092919061021f90610f52565b91905055506103e88151111561023457600080fd5b6040518060e0016040528060025481526020018581526020018381526020018481526020018281526020013373ffffffffffffffffffffffffffffffffffffffff168152602001600015158152506003600060025481526020019081526020016000206000820151816000015560208201518160010190805190602001906102bd929190610aa1565b506040820151816002015560608201518160030190805190602001906102e4929190610aa1565b506080820151816004019080519060200190610301929190610aa1565b5060a08201518160050160006101000a81548173ffffffffffffffffffffffffffffffffffffffff021916908373ffffffffffffffffffffffffffffffffffffffff16021790555060c08201518160050160146101000a81548160ff0219169083151502179055509050507fc4aee4ecc65be73661840a0ff455de0c6ac874bd3cf4acf858ac69949a7695bd600254858486853360006040516103aa9796959493929190610d6f565b60405180910390a150505050565b6000600360008381526020019081526020016000206040518060e0016040529081600082015481526020016001820180546103f290610eef565b80601f016020809104026020016040519081016040528092919081815260200182805461041e90610eef565b801561046b5780601f106104405761010080835404028352916020019161046b565b820191906000526020600020905b81548152906001019060200180831161044e57829003601f168201915b505050505081526020016002820154815260200160038201805461048e90610eef565b80601f01602080910402602001604051908101604052809291908181526020018280546104ba90610eef565b80156105075780601f106104dc57610100808354040283529160200191610507565b820191906000526020600020905b8154815290600101906020018083116104ea57829003601f168201915b5050505050815260200160048201805461052090610eef565b80601f016020809104026020016040519081016040528092919081815260200182805461054c90610eef565b80156105995780601f1061056e57610100808354040283529160200191610599565b820191906000526020600020905b81548152906001019060200180831161057c57829003601f168201915b505050505081526020016005820160009054906101000a900473ffffffffffffffffffffffffffffffffffffffff1673ffffffffffffffffffffffffffffffffffffffff1673ffffffffffffffffffffffffffffffffffffffff1681526020016005820160149054906101000a900460ff161515151581525050905060008160a001519050600082600001511180156106385750600254826000015111155b61064157600080fd5b816040015134101561065257600080fd5b8160c001511561066157600080fd5b3373ffffffffffffffffffffffffffffffffffffffff168173ffffffffffffffffffffffffffffffffffffffff16141561069a57600080fd5b338260a0019073ffffffffffffffffffffffffffffffffffffffff16908173ffffffffffffffffffffffffffffffffffffffff168152505060018260c0019015159081151581525050816003600085815260200190815260200160002060008201518160000155602082015181600101908051906020019061071d929190610aa1565b50604082015181600201556060820151816003019080519060200190610744929190610aa1565b506080820151816004019080519060200190610761929190610aa1565b5060a08201518160050160006101000a81548173ffffffffffffffffffffffffffffffffffffffff021916908373ffffffffffffffffffffffffffffffffffffffff16021790555060c08201518160050160146101000a81548160ff0219169083151502179055509050508073ffffffffffffffffffffffffffffffffffffffff166108fc349081150290604051600060405180830381858888f19350505050158015610812573d6000803e3d6000fd5b507f775bcb7f6c56385ad12bfc69df7af66a43bad46af70d5000269f61bd0ba84b6c60025483602001518460400151856060015186608001513360016040516108619796959493929190610d6f565b60405180910390a1505050565b600360205280600052604060002060009150905080600001549080600101805461089790610eef565b80601f01602080910402602001604051908101604052809291908181526020018280546108c390610eef565b80156109105780601f106108e557610100808354040283529160200191610910565b820191906000526020600020905b8154815290600101906020018083116108f357829003601f168201915b50505050509080600201549080600301805461092b90610eef565b80601f016020809104026020016040519081016040528092919081815260200182805461095790610eef565b80156109a45780601f10610979576101008083540402835291602001916109a4565b820191906000526020600020905b81548152906001019060200180831161098757829003601f168201915b5050505050908060040180546109b990610eef565b80601f01602080910402602001604051908101604052809291908181526020018280546109e590610eef565b8015610a325780601f10610a0757610100808354040283529160200191610a32565b820191906000526020600020905b815481529060010190602001808311610a1557829003601f168201915b5050505050908060050160009054906101000a900473ffffffffffffffffffffffffffffffffffffffff16908060050160149054906101000a900460ff16905087565b600160009054906101000a900473ffffffffffffffffffffffffffffffffffffffff1681565b60025481565b828054610aad90610eef565b90600052602060002090601f016020900481019282610acf5760008555610b16565b82601f10610ae857805160ff1916838001178555610b16565b82800160010185558215610b16579182015b82811115610b15578251825591602001919060010190610afa565b5b509050610b239190610b27565b5090565b5b80821115610b40576000816000905550600101610b28565b5090565b6000610b57610b5284610e18565b610df3565b905082815260208101848484011115610b7357610b7261102d565b5b610b7e848285610ead565b509392505050565b600082601f830112610b9b57610b9a611028565b5b8135610bab848260208601610b44565b91505092915050565b600081359050610bc38161104d565b92915050565b60008060008060808587031215610be357610be2611037565b5b600085013567ffffffffffffffff811115610c0157610c00611032565b5b610c0d87828801610b86565b945050602085013567ffffffffffffffff811115610c2e57610c2d611032565b5b610c3a87828801610b86565b9350506040610c4b87828801610bb4565b925050606085013567ffffffffffffffff811115610c6c57610c6b611032565b5b610c7887828801610b86565b91505092959194509250565b600060208284031215610c9a57610c99611037565b5b6000610ca884828501610bb4565b91505092915050565b610cba81610e65565b82525050565b610cc981610e77565b82525050565b6000610cda82610e49565b610ce48185610e54565b9350610cf4818560208601610ebc565b610cfd8161103c565b840191505092915050565b610d1181610ea3565b82525050565b6000602082019050610d2c6000830184610cb1565b92915050565b60006020820190508181036000830152610d4c8184610ccf565b905092915050565b6000602082019050610d696000830184610d08565b92915050565b600060e082019050610d84600083018a610d08565b8181036020830152610d968189610ccf565b9050610da56040830188610d08565b8181036060830152610db78187610ccf565b90508181036080830152610dcb8186610ccf565b9050610dda60a0830185610cb1565b610de760c0830184610cc0565b98975050505050505050565b6000610dfd610e0e565b9050610e098282610f21565b919050565b6000604051905090565b600067ffffffffffffffff821115610e3357610e32610ff9565b5b610e3c8261103c565b9050602081019050919050565b600081519050919050565b600082825260208201905092915050565b6000610e7082610e83565b9050919050565b60008115159050919050565b600073ffffffffffffffffffffffffffffffffffffffff82169050919050565b6000819050919050565b82818337600083830152505050565b60005b83811015610eda578082015181840152602081019050610ebf565b83811115610ee9576000848401525b50505050565b60006002820490506001821680610f0757607f821691505b60208210811415610f1b57610f1a610fca565b5b50919050565b610f2a8261103c565b810181811067ffffffffffffffff82111715610f4957610f48610ff9565b5b80604052505050565b6000610f5d82610ea3565b91507fffffffffffffffffffffffffffffffffffffffffffffffffffffffffffffffff821415610f9057610f8f610f9b565b5b600182019050919050565b7f4e487b7100000000000000000000000000000000000000000000000000000000600052601160045260246000fd5b7f4e487b7100000000000000000000000000000000000000000000000000000000600052602260045260246000fd5b7f4e487b7100000000000000000000000000000000000000000000000000000000600052604160045260246000fd5b600080fd5b600080fd5b600080fd5b600080fd5b6000601f19601f8301169050919050565b61105681610ea3565b811461106157600080fd5b5056fea2646970667358221220fa8e5dca599bcdad98296ef5ce6f1b838c333c23d9f25a82c64902b39718dff464736f6c63430008060033",
  "immutableReferences": {},
  "source": "// SPDX-License-Identifier: MIT\r\npragma solidity >=0.4.21 <0.9.0;\r\n\r\n//import \"@openzeppelin/contracts/token/ERC20/ERC20.sol\";\r\n\r\ncontract Marketplace {\r\n    string public name;\r\n    address public  owner;\r\n    uint public productCount = 0;\r\n    mapping(uint => Product) public products;\r\n\r\n    struct Product {\r\n        uint id;\r\n        string name;\r\n        uint price;\r\n        string imageHash;\r\n         string description;\r\n        address  owner;\r\n        bool purchased;\r\n    }\r\n\r\n    event ProductCreated(\r\n        uint id,\r\n        string name,\r\n        uint price,\r\n        string imageHash,\r\n        string description,\r\n        address  owner,\r\n        bool purchased\r\n    );\r\n\r\n    event ProductPurchased(\r\n        uint id,\r\n        string name,\r\n        uint price,\r\n        string imageHash,\r\n        string description,\r\n        address  owner,\r\n        bool purchased\r\n    );\r\n\r\n    constructor() {\r\n        name = \"Eternity\"; \r\n        owner = msg.sender;    \r\n    }\r\n\r\n    function createProduct(string memory _name, string memory _imageHash, uint _price, string memory _description ) public {\r\n        //  require(msg.sender == owner);\r\n        // Require a valid name\r\n        require(bytes(_name).length > 0);\r\n        // Require a valid price\r\n        require(_price > 0);\r\n        // Increment product count\r\n        productCount ++;\r\n       //description upto 1000\r\n         require(!(bytes(_description).length > 1000));\r\n           // Create the product\r\n        products[productCount] = Product(productCount, _name, _price, _imageHash, _description, msg.sender, false);\r\n        // Trigger an event\r\n        emit ProductCreated(productCount, _name, _price , _imageHash, _description, msg.sender, false);\r\n    }\r\n\r\n    function purchaseProduct(uint _id) public payable {\r\n        // Fetch the product\r\n        Product memory _product = products[_id];\r\n        // Fetch the owner\r\n        address  _seller = _product.owner;\r\n        // Make sure the product has a valid id\r\n        require(_product.id > 0 && _product.id <= productCount);\r\n        // Require that there is enough Ether in the transaction\r\n        require(msg.value >= _product.price);\r\n        // Require that the product has not been purchased already\r\n        require(!_product.purchased);\r\n        // Require that the buyer is not the seller\r\n        require(_seller != msg.sender);\r\n        // Transfer ownership to the buyer\r\n        _product.owner = msg.sender;\r\n        // Mark as purchased\r\n        _product.purchased = true;\r\n        // Update the product\r\n        products[_id] = _product;\r\n        // Pay the seller by sending them Ether\r\n        payable(address(_seller)).transfer(msg.value);\r\n        // address(_seller).transfer(msg.value);\r\n        // Trigger an event\r\n        emit ProductPurchased(productCount, _product.name, _product.price, _product.imageHash, _product.description , msg.sender, true);\r\n    }\r\n}\r\n",
  "sourcePath": "F:/Eternity/marketplace/src/contracts/Marketplace.sol",
  "compiler": {
    "name": "solc",
    "version": "0.8.6+commit.11564f7e.Emscripten.clang"
  },
  "schemaVersion": "3.4.1",
  "updatedAt": "2021-07-14T19:16:46.230Z",
  "networkType": "ethereum",
  "devdoc": {
    "kind": "dev",
    "methods": {},
    "version": 1
  },
  "userdoc": {
    "kind": "user",
    "methods": {},
    "version": 1
  }
}