{
  "contractName": "Marketplace",
  "abi": [
    {
      "inputs": [],
      "stateMutability": "nonpayable",
      "type": "constructor"
    },
    {
      "anonymous": false,
      "inputs": [
        {
          "indexed": false,
          "internalType": "uint256",
          "name": "id",
          "type": "uint256"
        },
        {
          "indexed": false,
          "internalType": "string",
          "name": "name",
          "type": "string"
        },
        {
          "indexed": false,
          "internalType": "uint256",
          "name": "price",
          "type": "uint256"
        },
        {
          "indexed": false,
          "internalType": "string",
          "name": "imageHash",
          "type": "string"
        },
        {
          "indexed": false,
          "internalType": "string",
          "name": "category",
          "type": "string"
        },
        {
          "indexed": false,
          "internalType": "string",
          "name": "description",
          "type": "string"
        },
        {
          "indexed": false,
          "internalType": "address",
          "name": "owner",
          "type": "address"
        },
        {
          "indexed": false,
          "internalType": "bool",
          "name": "purchased",
          "type": "bool"
        }
      ],
      "name": "ProductCreated",
      "type": "event"
    },
    {
      "anonymous": false,
      "inputs": [
        {
          "indexed": false,
          "internalType": "uint256",
          "name": "id",
          "type": "uint256"
        },
        {
          "indexed": false,
          "internalType": "string",
          "name": "name",
          "type": "string"
        },
        {
          "indexed": false,
          "internalType": "uint256",
          "name": "price",
          "type": "uint256"
        },
        {
          "indexed": false,
          "internalType": "string",
          "name": "imageHash",
          "type": "string"
        },
        {
          "indexed": false,
          "internalType": "string",
          "name": "category",
          "type": "string"
        },
        {
          "indexed": false,
          "internalType": "string",
          "name": "description",
          "type": "string"
        },
        {
          "indexed": false,
          "internalType": "address",
          "name": "owner",
          "type": "address"
        },
        {
          "indexed": false,
          "internalType": "bool",
          "name": "purchased",
          "type": "bool"
        }
      ],
      "name": "ProductPurchased",
      "type": "event"
    },
    {
      "inputs": [],
      "name": "name",
      "outputs": [
        {
          "internalType": "string",
          "name": "",
          "type": "string"
        }
      ],
      "stateMutability": "view",
      "type": "function",
      "constant": true
    },
    {
      "inputs": [],
      "name": "owner",
      "outputs": [
        {
          "internalType": "address",
          "name": "",
          "type": "address"
        }
      ],
      "stateMutability": "view",
      "type": "function",
      "constant": true
    },
    {
      "inputs": [],
      "name": "productCount",
      "outputs": [
        {
          "internalType": "uint256",
          "name": "",
          "type": "uint256"
        }
      ],
      "stateMutability": "view",
      "type": "function",
      "constant": true
    },
    {
      "inputs": [
        {
          "internalType": "uint256",
          "name": "",
          "type": "uint256"
        }
      ],
      "name": "products",
      "outputs": [
        {
          "internalType": "uint256",
          "name": "id",
          "type": "uint256"
        },
        {
          "internalType": "string",
          "name": "name",
          "type": "string"
        },
        {
          "internalType": "uint256",
          "name": "price",
          "type": "uint256"
        },
        {
          "internalType": "string",
          "name": "imageHash",
          "type": "string"
        },
        {
          "internalType": "string",
          "name": "category",
          "type": "string"
        },
        {
          "internalType": "string",
          "name": "description",
          "type": "string"
        },
        {
          "internalType": "address",
          "name": "owner",
          "type": "address"
        },
        {
          "internalType": "bool",
          "name": "purchased",
          "type": "bool"
        }
      ],
      "stateMutability": "view",
      "type": "function",
      "constant": true
    },
    {
      "inputs": [
        {
          "internalType": "string",
          "name": "_name",
          "type": "string"
        },
        {
          "internalType": "string",
          "name": "_imageHash",
          "type": "string"
        },
        {
          "internalType": "uint256",
          "name": "_price",
          "type": "uint256"
        },
        {
          "internalType": "string",
          "name": "_category",
          "type": "string"
        },
        {
          "internalType": "string",
          "name": "_description",
          "type": "string"
        }
      ],
      "name": "createProduct",
      "outputs": [],
      "stateMutability": "nonpayable",
      "type": "function"
    },
    {
      "inputs": [
        {
          "internalType": "uint256",
          "name": "_id",
          "type": "uint256"
        }
      ],
      "name": "purchaseProduct",
      "outputs": [],
      "stateMutability": "payable",
      "type": "function",
      "payable": true
    }
  ],
  "bytecode": "0x608060405260006002553480156200001657600080fd5b506040518060400160405280600881526020017f457465726e6974790000000000000000000000000000000000000000000000008152506000908051906020019062000064929190620000ac565b5033600160006101000a81548173ffffffffffffffffffffffffffffffffffffffff021916908373ffffffffffffffffffffffffffffffffffffffff160217905550620001c1565b828054620000ba906200015c565b90600052602060002090601f016020900481019282620000de57600085556200012a565b82601f10620000f957805160ff19168380011785556200012a565b828001600101855582156200012a579182015b82811115620001295782518255916020019190600101906200010c565b5b5090506200013991906200013d565b5090565b5b80821115620001585760008160009055506001016200013e565b5090565b600060028204905060018216806200017557607f821691505b602082108114156200018c576200018b62000192565b5b50919050565b7f4e487b7100000000000000000000000000000000000000000000000000000000600052602260045260246000fd5b61124c80620001d16000396000f3fe6080604052600436106100555760003560e01c806306fdde031461005a57806338e76a03146100855780637acc0b20146100a15780638da5cb5b146100e5578063d17209d714610110578063e0f6ef8714610139575b600080fd5b34801561006657600080fd5b5061006f610164565b60405161007c9190610ece565b60405180910390f35b61009f600480360381019061009a9190610e20565b6101f2565b005b3480156100ad57600080fd5b506100c860048036038101906100c39190610e20565b61075e565b6040516100dc989796959493929190610f0b565b60405180910390f35b3480156100f157600080fd5b506100fa6109f3565b6040516101079190610eb3565b60405180910390f35b34801561011c57600080fd5b5061013760048036038101906101329190610d35565b610a19565b005b34801561014557600080fd5b5061014e610c07565b60405161015b9190610ef0565b60405180910390f35b60008054610171906110a1565b80601f016020809104026020016040519081016040528092919081815260200182805461019d906110a1565b80156101ea5780601f106101bf576101008083540402835291602001916101ea565b820191906000526020600020905b8154815290600101906020018083116101cd57829003601f168201915b505050505081565b600060036000838152602001908152602001600020604051806101000160405290816000820154815260200160018201805461022d906110a1565b80601f0160208091040260200160405190810160405280929190818152602001828054610259906110a1565b80156102a65780601f1061027b576101008083540402835291602001916102a6565b820191906000526020600020905b81548152906001019060200180831161028957829003601f168201915b50505050508152602001600282015481526020016003820180546102c9906110a1565b80601f01602080910402602001604051908101604052809291908181526020018280546102f5906110a1565b80156103425780601f1061031757610100808354040283529160200191610342565b820191906000526020600020905b81548152906001019060200180831161032557829003601f168201915b5050505050815260200160048201805461035b906110a1565b80601f0160208091040260200160405190810160405280929190818152602001828054610387906110a1565b80156103d45780601f106103a9576101008083540402835291602001916103d4565b820191906000526020600020905b8154815290600101906020018083116103b757829003601f168201915b505050505081526020016005820180546103ed906110a1565b80601f0160208091040260200160405190810160405280929190818152602001828054610419906110a1565b80156104665780601f1061043b57610100808354040283529160200191610466565b820191906000526020600020905b81548152906001019060200180831161044957829003601f168201915b505050505081526020016006820160009054906101000a900473ffffffffffffffffffffffffffffffffffffffff1673ffffffffffffffffffffffffffffffffffffffff1673ffffffffffffffffffffffffffffffffffffffff1681526020016006820160149054906101000a900460ff161515151581525050905060008160c001519050600082600001511180156105055750600254826000015111155b61050e57600080fd5b816040015134101561051f57600080fd5b8160e001511561052e57600080fd5b3373ffffffffffffffffffffffffffffffffffffffff168173ffffffffffffffffffffffffffffffffffffffff16141561056757600080fd5b338260c0019073ffffffffffffffffffffffffffffffffffffffff16908173ffffffffffffffffffffffffffffffffffffffff168152505060018260e001901515908115158152505081600360008581526020019081526020016000206000820151816000015560208201518160010190805190602001906105ea929190610c0d565b50604082015181600201556060820151816003019080519060200190610611929190610c0d565b50608082015181600401908051906020019061062e929190610c0d565b5060a082015181600501908051906020019061064b929190610c0d565b5060c08201518160060160006101000a81548173ffffffffffffffffffffffffffffffffffffffff021916908373ffffffffffffffffffffffffffffffffffffffff16021790555060e08201518160060160146101000a81548160ff0219169083151502179055509050508073ffffffffffffffffffffffffffffffffffffffff166108fc349081150290604051600060405180830381858888f193505050501580156106fc573d6000803e3d6000fd5b507feca817817c3493521e2932d4610ad89a83fa225ea34da1a2963a7733c0cef36960025483602001518460400151856060015186608001518760a00151336001604051610751989796959493929190610f0b565b60405180910390a1505050565b6003602052806000526040600020600091509050806000015490806001018054610787906110a1565b80601f01602080910402602001604051908101604052809291908181526020018280546107b3906110a1565b80156108005780601f106107d557610100808354040283529160200191610800565b820191906000526020600020905b8154815290600101906020018083116107e357829003601f168201915b50505050509080600201549080600301805461081b906110a1565b80601f0160208091040260200160405190810160405280929190818152602001828054610847906110a1565b80156108945780601f1061086957610100808354040283529160200191610894565b820191906000526020600020905b81548152906001019060200180831161087757829003601f168201915b5050505050908060040180546108a9906110a1565b80601f01602080910402602001604051908101604052809291908181526020018280546108d5906110a1565b80156109225780601f106108f757610100808354040283529160200191610922565b820191906000526020600020905b81548152906001019060200180831161090557829003601f168201915b505050505090806005018054610937906110a1565b80601f0160208091040260200160405190810160405280929190818152602001828054610963906110a1565b80156109b05780601f10610985576101008083540402835291602001916109b0565b820191906000526020600020905b81548152906001019060200180831161099357829003601f168201915b5050505050908060060160009054906101000a900473ffffffffffffffffffffffffffffffffffffffff16908060060160149054906101000a900460ff16905088565b600160009054906101000a900473ffffffffffffffffffffffffffffffffffffffff1681565b6000855111610a2757600080fd5b60008311610a3457600080fd5b60026000815480929190610a4790611104565b91905055506103e881511115610a5c57600080fd5b60405180610100016040528060025481526020018681526020018481526020018581526020018381526020018281526020013373ffffffffffffffffffffffffffffffffffffffff16815260200160001515815250600360006002548152602001908152602001600020600082015181600001556020820151816001019080519060200190610aec929190610c0d565b50604082015181600201556060820151816003019080519060200190610b13929190610c0d565b506080820151816004019080519060200190610b30929190610c0d565b5060a0820151816005019080519060200190610b4d929190610c0d565b5060c08201518160060160006101000a81548173ffffffffffffffffffffffffffffffffffffffff021916908373ffffffffffffffffffffffffffffffffffffffff16021790555060e08201518160060160146101000a81548160ff0219169083151502179055509050507ffbe6e8a592625d354660171820131329453f02c0351f8cd2b57b5daa668dc1b36002548685878686336000604051610bf8989796959493929190610f0b565b60405180910390a15050505050565b60025481565b828054610c19906110a1565b90600052602060002090601f016020900481019282610c3b5760008555610c82565b82601f10610c5457805160ff1916838001178555610c82565b82800160010185558215610c82579182015b82811115610c81578251825591602001919060010190610c66565b5b509050610c8f9190610c93565b5090565b5b80821115610cac576000816000905550600101610c94565b5090565b6000610cc3610cbe84610fca565b610fa5565b905082815260208101848484011115610cdf57610cde6111df565b5b610cea84828561105f565b509392505050565b600082601f830112610d0757610d066111da565b5b8135610d17848260208601610cb0565b91505092915050565b600081359050610d2f816111ff565b92915050565b600080600080600060a08688031215610d5157610d506111e9565b5b600086013567ffffffffffffffff811115610d6f57610d6e6111e4565b5b610d7b88828901610cf2565b955050602086013567ffffffffffffffff811115610d9c57610d9b6111e4565b5b610da888828901610cf2565b9450506040610db988828901610d20565b935050606086013567ffffffffffffffff811115610dda57610dd96111e4565b5b610de688828901610cf2565b925050608086013567ffffffffffffffff811115610e0757610e066111e4565b5b610e1388828901610cf2565b9150509295509295909350565b600060208284031215610e3657610e356111e9565b5b6000610e4484828501610d20565b91505092915050565b610e5681611017565b82525050565b610e6581611029565b82525050565b6000610e7682610ffb565b610e808185611006565b9350610e9081856020860161106e565b610e99816111ee565b840191505092915050565b610ead81611055565b82525050565b6000602082019050610ec86000830184610e4d565b92915050565b60006020820190508181036000830152610ee88184610e6b565b905092915050565b6000602082019050610f056000830184610ea4565b92915050565b600061010082019050610f21600083018b610ea4565b8181036020830152610f33818a610e6b565b9050610f426040830189610ea4565b8181036060830152610f548188610e6b565b90508181036080830152610f688187610e6b565b905081810360a0830152610f7c8186610e6b565b9050610f8b60c0830185610e4d565b610f9860e0830184610e5c565b9998505050505050505050565b6000610faf610fc0565b9050610fbb82826110d3565b919050565b6000604051905090565b600067ffffffffffffffff821115610fe557610fe46111ab565b5b610fee826111ee565b9050602081019050919050565b600081519050919050565b600082825260208201905092915050565b600061102282611035565b9050919050565b60008115159050919050565b600073ffffffffffffffffffffffffffffffffffffffff82169050919050565b6000819050919050565b82818337600083830152505050565b60005b8381101561108c578082015181840152602081019050611071565b8381111561109b576000848401525b50505050565b600060028204905060018216806110b957607f821691505b602082108114156110cd576110cc61117c565b5b50919050565b6110dc826111ee565b810181811067ffffffffffffffff821117156110fb576110fa6111ab565b5b80604052505050565b600061110f82611055565b91507fffffffffffffffffffffffffffffffffffffffffffffffffffffffffffffffff8214156111425761114161114d565b5b600182019050919050565b7f4e487b7100000000000000000000000000000000000000000000000000000000600052601160045260246000fd5b7f4e487b7100000000000000000000000000000000000000000000000000000000600052602260045260246000fd5b7f4e487b7100000000000000000000000000000000000000000000000000000000600052604160045260246000fd5b600080fd5b600080fd5b600080fd5b600080fd5b6000601f19601f8301169050919050565b61120881611055565b811461121357600080fd5b5056fea2646970667358221220577230f9ac6499133e118ebc014caf55a401f97c5888ef8017309b7accc8a9a364736f6c63430008060033",
  "immutableReferences": {},
  "source": "// SPDX-License-Identifier: MIT\r\npragma solidity >=0.4.21 <0.9.0;\r\n\r\n//import \"@openzeppelin/contracts/token/ERC20/ERC20.sol\";\r\n\r\ncontract Marketplace {\r\n    string public name;\r\n    address public  owner;\r\n    uint public productCount = 0;\r\n    mapping(uint => Product) public products;\r\n\r\n    struct Product {\r\n        uint id;\r\n        string name;\r\n        uint price;\r\n        string imageHash;\r\n        string category;\r\n         string description;\r\n        address  owner;\r\n        bool purchased;\r\n    }\r\n\r\n    event ProductCreated(\r\n        uint id,\r\n        string name,\r\n        uint price,\r\n        string imageHash,\r\n         string category,\r\n        string description,\r\n        address  owner,\r\n        bool purchased\r\n    );\r\n\r\n    event ProductPurchased(\r\n        uint id,\r\n        string name,\r\n        uint price,\r\n        string imageHash,\r\n         string category,\r\n        string description,\r\n        address  owner,\r\n        bool purchased\r\n    );\r\n\r\n    constructor() {\r\n        name = \"Eternity\"; \r\n        owner = msg.sender;    \r\n    }\r\n\r\n    function createProduct(string memory _name, string memory _imageHash, uint _price, string memory _category, string memory _description ) public {\r\n        //  require(msg.sender == owner);\r\n        // Require a valid name\r\n        require(bytes(_name).length > 0);\r\n        // Require a valid price\r\n        require(_price > 0);\r\n        // Increment product count\r\n        productCount ++;\r\n       //description upto 1000\r\n         require(!(bytes(_description).length > 1000));\r\n           // Create the product\r\n        products[productCount] = Product(productCount, _name, _price, _imageHash, _category, _description, msg.sender, false);\r\n        // Trigger an event\r\n        emit ProductCreated(productCount, _name, _price , _imageHash, _category , _description, msg.sender, false);\r\n    }\r\n\r\n    function purchaseProduct(uint _id) public payable {\r\n        // Fetch the product\r\n        Product memory _product = products[_id];\r\n        // Fetch the owner\r\n        address  _seller = _product.owner;\r\n        // Make sure the product has a valid id\r\n        require(_product.id > 0 && _product.id <= productCount);\r\n        // Require that there is enough Ether in the transaction\r\n        require(msg.value >= _product.price);\r\n        // Require that the product has not been purchased already\r\n        require(!_product.purchased);\r\n        // Require that the buyer is not the seller\r\n        require(_seller != msg.sender);\r\n        // Transfer ownership to the buyer\r\n        _product.owner = msg.sender;\r\n        // Mark as purchased\r\n        _product.purchased = true;\r\n        // Update the product\r\n        products[_id] = _product;\r\n        // Pay the seller by sending them Ether\r\n        payable(address(_seller)).transfer(msg.value);\r\n        // address(_seller).transfer(msg.value);\r\n        // Trigger an event\r\n        emit ProductPurchased(productCount, _product.name, _product.price, _product.imageHash, _product.category , _product.description , msg.sender, true);\r\n    }\r\n}\r\n",
  "sourcePath": "F:/Eternity/marketplace/src/contracts/Marketplace.sol",
  "compiler": {
    "name": "solc",
    "version": "0.8.6+commit.11564f7e.Emscripten.clang"
  },
  "schemaVersion": "3.4.1",
  "updatedAt": "2021-07-17T06:08:57.695Z",
  "networkType": "ethereum",
  "devdoc": {
    "kind": "dev",
    "methods": {},
    "version": 1
  },
  "userdoc": {
    "kind": "user",
    "methods": {},
    "version": 1
  }
}