{
  "contractName": "Marketplace",
  "abi": [
    {
      "inputs": [],
      "stateMutability": "nonpayable",
      "type": "constructor"
    },
    {
      "anonymous": false,
      "inputs": [
        {
          "indexed": false,
          "internalType": "uint256",
          "name": "id",
          "type": "uint256"
        },
        {
          "indexed": false,
          "internalType": "string",
          "name": "name",
          "type": "string"
        },
        {
          "indexed": false,
          "internalType": "string",
          "name": "price",
          "type": "string"
        },
        {
          "indexed": false,
          "internalType": "string",
          "name": "imageHash",
          "type": "string"
        },
        {
          "indexed": false,
          "internalType": "string",
          "name": "category",
          "type": "string"
        },
        {
          "indexed": false,
          "internalType": "string",
          "name": "description",
          "type": "string"
        },
        {
          "indexed": false,
          "internalType": "address",
          "name": "owner",
          "type": "address"
        },
        {
          "indexed": false,
          "internalType": "bool",
          "name": "purchased",
          "type": "bool"
        }
      ],
      "name": "ProductCreated",
      "type": "event"
    },
    {
      "anonymous": false,
      "inputs": [
        {
          "indexed": false,
          "internalType": "uint256",
          "name": "id",
          "type": "uint256"
        },
        {
          "indexed": false,
          "internalType": "string",
          "name": "name",
          "type": "string"
        },
        {
          "indexed": false,
          "internalType": "string",
          "name": "price",
          "type": "string"
        },
        {
          "indexed": false,
          "internalType": "string",
          "name": "imageHash",
          "type": "string"
        },
        {
          "indexed": false,
          "internalType": "string",
          "name": "category",
          "type": "string"
        },
        {
          "indexed": false,
          "internalType": "string",
          "name": "description",
          "type": "string"
        },
        {
          "indexed": false,
          "internalType": "address",
          "name": "owner",
          "type": "address"
        },
        {
          "indexed": false,
          "internalType": "bool",
          "name": "purchased",
          "type": "bool"
        }
      ],
      "name": "ProductPurchased",
      "type": "event"
    },
    {
      "anonymous": false,
      "inputs": [
        {
          "indexed": false,
          "internalType": "string",
          "name": "username",
          "type": "string"
        },
        {
          "indexed": false,
          "internalType": "string",
          "name": "email",
          "type": "string"
        },
        {
          "indexed": false,
          "internalType": "string",
          "name": "biography",
          "type": "string"
        }
      ],
      "name": "ProfileSetting",
      "type": "event"
    },
    {
      "inputs": [],
      "name": "count",
      "outputs": [
        {
          "internalType": "uint256",
          "name": "",
          "type": "uint256"
        }
      ],
      "stateMutability": "view",
      "type": "function",
      "constant": true
    },
    {
      "inputs": [],
      "name": "name",
      "outputs": [
        {
          "internalType": "string",
          "name": "",
          "type": "string"
        }
      ],
      "stateMutability": "view",
      "type": "function",
      "constant": true
    },
    {
      "inputs": [],
      "name": "owner",
      "outputs": [
        {
          "internalType": "address",
          "name": "",
          "type": "address"
        }
      ],
      "stateMutability": "view",
      "type": "function",
      "constant": true
    },
    {
      "inputs": [],
      "name": "productCount",
      "outputs": [
        {
          "internalType": "uint256",
          "name": "",
          "type": "uint256"
        }
      ],
      "stateMutability": "view",
      "type": "function",
      "constant": true
    },
    {
      "inputs": [
        {
          "internalType": "uint256",
          "name": "",
          "type": "uint256"
        }
      ],
      "name": "products",
      "outputs": [
        {
          "internalType": "uint256",
          "name": "id",
          "type": "uint256"
        },
        {
          "internalType": "string",
          "name": "name",
          "type": "string"
        },
        {
          "internalType": "string",
          "name": "price",
          "type": "string"
        },
        {
          "internalType": "string",
          "name": "imageHash",
          "type": "string"
        },
        {
          "internalType": "string",
          "name": "category",
          "type": "string"
        },
        {
          "internalType": "string",
          "name": "description",
          "type": "string"
        },
        {
          "internalType": "address",
          "name": "owner",
          "type": "address"
        },
        {
          "internalType": "bool",
          "name": "purchased",
          "type": "bool"
        }
      ],
      "stateMutability": "view",
      "type": "function",
      "constant": true
    },
    {
      "inputs": [
        {
          "internalType": "uint256",
          "name": "",
          "type": "uint256"
        }
      ],
      "name": "profile",
      "outputs": [
        {
          "internalType": "string",
          "name": "username",
          "type": "string"
        },
        {
          "internalType": "string",
          "name": "email",
          "type": "string"
        },
        {
          "internalType": "string",
          "name": "biography",
          "type": "string"
        }
      ],
      "stateMutability": "view",
      "type": "function",
      "constant": true
    },
    {
      "inputs": [
        {
          "internalType": "string",
          "name": "_username",
          "type": "string"
        },
        {
          "internalType": "string",
          "name": "_email",
          "type": "string"
        },
        {
          "internalType": "string",
          "name": "_biography",
          "type": "string"
        }
      ],
      "name": "profileSetting",
      "outputs": [],
      "stateMutability": "nonpayable",
      "type": "function"
    },
    {
      "inputs": [
        {
          "internalType": "string",
          "name": "_name",
          "type": "string"
        },
        {
          "internalType": "string",
          "name": "_imageHash",
          "type": "string"
        },
        {
          "internalType": "string",
          "name": "_price",
          "type": "string"
        },
        {
          "internalType": "string",
          "name": "_category",
          "type": "string"
        },
        {
          "internalType": "string",
          "name": "_description",
          "type": "string"
        }
      ],
      "name": "createProduct",
      "outputs": [],
      "stateMutability": "nonpayable",
      "type": "function"
    },
    {
      "inputs": [
        {
          "internalType": "uint256",
          "name": "_id",
          "type": "uint256"
        }
      ],
      "name": "purchaseProduct",
      "outputs": [],
      "stateMutability": "payable",
      "type": "function",
      "payable": true
    }
  ],
  "bytecode": "0x6080604052600060025560006003553480156200001b57600080fd5b506040518060400160405280600881526020017f457465726e6974790000000000000000000000000000000000000000000000008152506000908051906020019062000069929190620000b1565b5033600160006101000a81548173ffffffffffffffffffffffffffffffffffffffff021916908373ffffffffffffffffffffffffffffffffffffffff160217905550620001c6565b828054620000bf9062000161565b90600052602060002090601f016020900481019282620000e357600085556200012f565b82601f10620000fe57805160ff19168380011785556200012f565b828001600101855582156200012f579182015b828111156200012e57825182559160200191906001019062000111565b5b5090506200013e919062000142565b5090565b5b808211156200015d57600081600090555060010162000143565b5090565b600060028204905060018216806200017a57607f821691505b6020821081141562000191576200019062000197565b5b50919050565b7f4e487b7100000000000000000000000000000000000000000000000000000000600052602260045260246000fd5b6117d080620001d66000396000f3fe6080604052600436106100865760003560e01c806370bb83901161005957806370bb83901461012657806372cd2b1a1461014f5780637acc0b201461018e5780638da5cb5b146101d2578063e0f6ef87146101fd57610086565b806306661abd1461008b57806306fdde03146100b657806338e76a03146100e15780635b0769d6146100fd575b600080fd5b34801561009757600080fd5b506100a0610228565b6040516100ad919061146d565b60405180910390f35b3480156100c257600080fd5b506100cb61022e565b6040516100d891906113ff565b60405180910390f35b6100fb60048036038101906100f69190611351565b6102bc565b005b34801561010957600080fd5b50610124600480360381019061011f919061124a565b6108b2565b005b34801561013257600080fd5b5061014d600480360381019061014891906111a3565b610aa6565b005b34801561015b57600080fd5b5061017660048036038101906101719190611351565b610b70565b60405161018593929190611421565b60405180910390f35b34801561019a57600080fd5b506101b560048036038101906101b09190611351565b610d32565b6040516101c9989796959493929190611488565b60405180910390f35b3480156101de57600080fd5b506101e761104f565b6040516101f491906113e4565b60405180910390f35b34801561020957600080fd5b50610212611075565b60405161021f919061146d565b60405180910390f35b60035481565b6000805461023b90611625565b80601f016020809104026020016040519081016040528092919081815260200182805461026790611625565b80156102b45780601f10610289576101008083540402835291602001916102b4565b820191906000526020600020905b81548152906001019060200180831161029757829003601f168201915b505050505081565b60006004600083815260200190815260200160002060405180610100016040529081600082015481526020016001820180546102f790611625565b80601f016020809104026020016040519081016040528092919081815260200182805461032390611625565b80156103705780601f1061034557610100808354040283529160200191610370565b820191906000526020600020905b81548152906001019060200180831161035357829003601f168201915b5050505050815260200160028201805461038990611625565b80601f01602080910402602001604051908101604052809291908181526020018280546103b590611625565b80156104025780601f106103d757610100808354040283529160200191610402565b820191906000526020600020905b8154815290600101906020018083116103e557829003601f168201915b5050505050815260200160038201805461041b90611625565b80601f016020809104026020016040519081016040528092919081815260200182805461044790611625565b80156104945780601f1061046957610100808354040283529160200191610494565b820191906000526020600020905b81548152906001019060200180831161047757829003601f168201915b505050505081526020016004820180546104ad90611625565b80601f01602080910402602001604051908101604052809291908181526020018280546104d990611625565b80156105265780601f106104fb57610100808354040283529160200191610526565b820191906000526020600020905b81548152906001019060200180831161050957829003601f168201915b5050505050815260200160058201805461053f90611625565b80601f016020809104026020016040519081016040528092919081815260200182805461056b90611625565b80156105b85780601f1061058d576101008083540402835291602001916105b8565b820191906000526020600020905b81548152906001019060200180831161059b57829003601f168201915b505050505081526020016006820160009054906101000a900473ffffffffffffffffffffffffffffffffffffffff1673ffffffffffffffffffffffffffffffffffffffff1673ffffffffffffffffffffffffffffffffffffffff1681526020016006820160149054906101000a900460ff161515151581525050905060008160c001519050600082600001511180156106575750600254826000015111155b61066057600080fd5b8160e001511561066f57600080fd5b3373ffffffffffffffffffffffffffffffffffffffff168173ffffffffffffffffffffffffffffffffffffffff1614156106a857600080fd5b338260c0019073ffffffffffffffffffffffffffffffffffffffff16908173ffffffffffffffffffffffffffffffffffffffff168152505060018260e0019015159081151581525050816004600085815260200190815260200160002060008201518160000155602082015181600101908051906020019061072b92919061107b565b50604082015181600201908051906020019061074892919061107b565b50606082015181600301908051906020019061076592919061107b565b50608082015181600401908051906020019061078292919061107b565b5060a082015181600501908051906020019061079f92919061107b565b5060c08201518160060160006101000a81548173ffffffffffffffffffffffffffffffffffffffff021916908373ffffffffffffffffffffffffffffffffffffffff16021790555060e08201518160060160146101000a81548160ff0219169083151502179055509050508073ffffffffffffffffffffffffffffffffffffffff166108fc349081150290604051600060405180830381858888f19350505050158015610850573d6000803e3d6000fd5b507f0a5f561ec7f9a03f5d10a8fe21a46dd74cafc70963757e71fd6e366c9eeb6cfd60025483602001518460400151856060015186608001518760a001513360016040516108a5989796959493929190611488565b60405180910390a1505050565b60008551116108c057600080fd5b600260008154809291906108d390611688565b91905055506103e8815111156108e857600080fd5b60405180610100016040528060025481526020018681526020018481526020018581526020018381526020018281526020013373ffffffffffffffffffffffffffffffffffffffff1681526020016000151581525060046000600254815260200190815260200160002060008201518160000155602082015181600101908051906020019061097892919061107b565b50604082015181600201908051906020019061099592919061107b565b5060608201518160030190805190602001906109b292919061107b565b5060808201518160040190805190602001906109cf92919061107b565b5060a08201518160050190805190602001906109ec92919061107b565b5060c08201518160060160006101000a81548173ffffffffffffffffffffffffffffffffffffffff021916908373ffffffffffffffffffffffffffffffffffffffff16021790555060e08201518160060160146101000a81548160ff0219169083151502179055509050507f337c58ba8cfa3431d1161326d42d3130e5139edb7fd6805599200f54829403bb6002548685878686336000604051610a97989796959493929190611488565b60405180910390a15050505050565b6040518060600160405280848152602001838152602001828152506005600060035481526020019081526020016000206000820151816000019080519060200190610af292919061107b565b506020820151816001019080519060200190610b0f92919061107b565b506040820151816002019080519060200190610b2c92919061107b565b509050507f05546224503ff88985e2206081cdbd52987c06ed42cde982d1db9fcda3536b63838383604051610b6393929190611421565b60405180910390a1505050565b6005602052806000526040600020600091509050806000018054610b9390611625565b80601f0160208091040260200160405190810160405280929190818152602001828054610bbf90611625565b8015610c0c5780601f10610be157610100808354040283529160200191610c0c565b820191906000526020600020905b815481529060010190602001808311610bef57829003601f168201915b505050505090806001018054610c2190611625565b80601f0160208091040260200160405190810160405280929190818152602001828054610c4d90611625565b8015610c9a5780601f10610c6f57610100808354040283529160200191610c9a565b820191906000526020600020905b815481529060010190602001808311610c7d57829003601f168201915b505050505090806002018054610caf90611625565b80601f0160208091040260200160405190810160405280929190818152602001828054610cdb90611625565b8015610d285780601f10610cfd57610100808354040283529160200191610d28565b820191906000526020600020905b815481529060010190602001808311610d0b57829003601f168201915b5050505050905083565b6004602052806000526040600020600091509050806000015490806001018054610d5b90611625565b80601f0160208091040260200160405190810160405280929190818152602001828054610d8790611625565b8015610dd45780601f10610da957610100808354040283529160200191610dd4565b820191906000526020600020905b815481529060010190602001808311610db757829003601f168201915b505050505090806002018054610de990611625565b80601f0160208091040260200160405190810160405280929190818152602001828054610e1590611625565b8015610e625780601f10610e3757610100808354040283529160200191610e62565b820191906000526020600020905b815481529060010190602001808311610e4557829003601f168201915b505050505090806003018054610e7790611625565b80601f0160208091040260200160405190810160405280929190818152602001828054610ea390611625565b8015610ef05780601f10610ec557610100808354040283529160200191610ef0565b820191906000526020600020905b815481529060010190602001808311610ed357829003601f168201915b505050505090806004018054610f0590611625565b80601f0160208091040260200160405190810160405280929190818152602001828054610f3190611625565b8015610f7e5780601f10610f5357610100808354040283529160200191610f7e565b820191906000526020600020905b815481529060010190602001808311610f6157829003601f168201915b505050505090806005018054610f9390611625565b80601f0160208091040260200160405190810160405280929190818152602001828054610fbf90611625565b801561100c5780601f10610fe15761010080835404028352916020019161100c565b820191906000526020600020905b815481529060010190602001808311610fef57829003601f168201915b5050505050908060060160009054906101000a900473ffffffffffffffffffffffffffffffffffffffff16908060060160149054906101000a900460ff16905088565b600160009054906101000a900473ffffffffffffffffffffffffffffffffffffffff1681565b60025481565b82805461108790611625565b90600052602060002090601f0160209004810192826110a957600085556110f0565b82601f106110c257805160ff19168380011785556110f0565b828001600101855582156110f0579182015b828111156110ef5782518255916020019190600101906110d4565b5b5090506110fd9190611101565b5090565b5b8082111561111a576000816000905550600101611102565b5090565b600061113161112c8461154e565b611529565b90508281526020810184848401111561114d5761114c611763565b5b6111588482856115e3565b509392505050565b600082601f8301126111755761117461175e565b5b813561118584826020860161111e565b91505092915050565b60008135905061119d81611783565b92915050565b6000806000606084860312156111bc576111bb61176d565b5b600084013567ffffffffffffffff8111156111da576111d9611768565b5b6111e686828701611160565b935050602084013567ffffffffffffffff81111561120757611206611768565b5b61121386828701611160565b925050604084013567ffffffffffffffff81111561123457611233611768565b5b61124086828701611160565b9150509250925092565b600080600080600060a086880312156112665761126561176d565b5b600086013567ffffffffffffffff81111561128457611283611768565b5b61129088828901611160565b955050602086013567ffffffffffffffff8111156112b1576112b0611768565b5b6112bd88828901611160565b945050604086013567ffffffffffffffff8111156112de576112dd611768565b5b6112ea88828901611160565b935050606086013567ffffffffffffffff81111561130b5761130a611768565b5b61131788828901611160565b925050608086013567ffffffffffffffff81111561133857611337611768565b5b61134488828901611160565b9150509295509295909350565b6000602082840312156113675761136661176d565b5b60006113758482850161118e565b91505092915050565b6113878161159b565b82525050565b611396816115ad565b82525050565b60006113a78261157f565b6113b1818561158a565b93506113c18185602086016115f2565b6113ca81611772565b840191505092915050565b6113de816115d9565b82525050565b60006020820190506113f9600083018461137e565b92915050565b60006020820190508181036000830152611419818461139c565b905092915050565b6000606082019050818103600083015261143b818661139c565b9050818103602083015261144f818561139c565b90508181036040830152611463818461139c565b9050949350505050565b600060208201905061148260008301846113d5565b92915050565b60006101008201905061149e600083018b6113d5565b81810360208301526114b0818a61139c565b905081810360408301526114c4818961139c565b905081810360608301526114d8818861139c565b905081810360808301526114ec818761139c565b905081810360a0830152611500818661139c565b905061150f60c083018561137e565b61151c60e083018461138d565b9998505050505050505050565b6000611533611544565b905061153f8282611657565b919050565b6000604051905090565b600067ffffffffffffffff8211156115695761156861172f565b5b61157282611772565b9050602081019050919050565b600081519050919050565b600082825260208201905092915050565b60006115a6826115b9565b9050919050565b60008115159050919050565b600073ffffffffffffffffffffffffffffffffffffffff82169050919050565b6000819050919050565b82818337600083830152505050565b60005b838110156116105780820151818401526020810190506115f5565b8381111561161f576000848401525b50505050565b6000600282049050600182168061163d57607f821691505b6020821081141561165157611650611700565b5b50919050565b61166082611772565b810181811067ffffffffffffffff8211171561167f5761167e61172f565b5b80604052505050565b6000611693826115d9565b91507fffffffffffffffffffffffffffffffffffffffffffffffffffffffffffffffff8214156116c6576116c56116d1565b5b600182019050919050565b7f4e487b7100000000000000000000000000000000000000000000000000000000600052601160045260246000fd5b7f4e487b7100000000000000000000000000000000000000000000000000000000600052602260045260246000fd5b7f4e487b7100000000000000000000000000000000000000000000000000000000600052604160045260246000fd5b600080fd5b600080fd5b600080fd5b600080fd5b6000601f19601f8301169050919050565b61178c816115d9565b811461179757600080fd5b5056fea2646970667358221220800e56a5dc015082a7b1889c90aade90e47de613076773a3a1447fa99a4d8d0a64736f6c63430008060033",
  "immutableReferences": {},
  "source": "// SPDX-License-Identifier: MIT\r\npragma solidity >=0.4.21 <0.9.0;\r\n\r\n//import \"@openzeppelin/contracts/token/ERC20/ERC20.sol\";\r\n\r\ncontract Marketplace {\r\n    string public name;\r\n    // string public profile;\r\n    address public  owner;\r\n    uint public productCount = 0;\r\n      uint public count= 0;\r\n    mapping(uint => Product) public products;\r\n     mapping(uint256 => Profile) public profile;\r\n\r\n    struct Profile {\r\n        string username;\r\n        string  email;\r\n        string biography; \r\n    }\r\n    \r\n    struct Product {\r\n        uint id;\r\n        string name;\r\n        string  price;\r\n        string imageHash;\r\n        string category;\r\n        string description;\r\n        address  owner;\r\n        bool purchased;\r\n    }\r\n    event  ProfileSetting(\r\n        string username,\r\n        string  email,\r\n        string biography\r\n    );\r\n\r\n    event ProductCreated(\r\n        uint id,\r\n        string name,\r\n        string  price,\r\n        string imageHash,\r\n         string category,\r\n        string description,\r\n        address  owner,\r\n        bool purchased\r\n    );\r\n\r\n    event ProductPurchased(\r\n        uint id,\r\n        string name,\r\n        string   price,\r\n        string imageHash,\r\n         string category,\r\n        string description,\r\n        address  owner,\r\n        bool purchased\r\n    );\r\n\r\n    constructor() {\r\n        name = \"Eternity\"; \r\n        owner = msg.sender;    \r\n    }\r\n\r\n    function profileSetting(string memory _username, string memory _email, string memory _biography ) public {\r\n           // Create the profile\r\n        profile[count] = Profile( _username, _email, _biography);\r\n        // Trigger an event\r\n        emit ProfileSetting(_username, _email, _biography);\r\n    }\r\n\r\n    function createProduct(string memory _name, string memory _imageHash, string memory _price, string memory _category, string memory _description ) public {\r\n        //  require(msg.sender == owner);\r\n        // Require a valid name\r\n        require(bytes(_name).length > 0);\r\n        // Require a valid price\r\n        // require(_price >= 0);\r\n        // Increment product count\r\n        productCount ++;\r\n       //description upto 1000\r\n        require(!(bytes(_description).length > 1000));\r\n           // Create the product\r\n        products[productCount] = Product(productCount, _name, _price, _imageHash, _category, _description, msg.sender, false);\r\n        // Trigger an event\r\n        emit ProductCreated(productCount, _name, _price , _imageHash, _category , _description, msg.sender, false);\r\n    }\r\n\r\n    function purchaseProduct(uint _id) public payable {\r\n        // Fetch the product\r\n        Product memory _product = products[_id];\r\n        // Fetch the owner\r\n        address  _seller = _product.owner;\r\n        // Make sure the product has a valid id\r\n        require(_product.id > 0 && _product.id <= productCount);\r\n        // Require that there is enough Ether in the transaction\r\n        // require(msg.value >= _product.price);\r\n        // Require that the product has not been purchased already\r\n        require(!_product.purchased);\r\n        // Require that the buyer is not the seller\r\n        require(_seller != msg.sender);\r\n        // Transfer ownership to the buyer\r\n        _product.owner = msg.sender;\r\n        // Mark as purchased\r\n        _product.purchased = true;\r\n        // Update the product\r\n        products[_id] = _product;\r\n        // Pay the seller by sending them Ether\r\n        payable(address(_seller)).transfer(msg.value);\r\n        // address(_seller).transfer(msg.value);\r\n        // Trigger an event\r\n        emit ProductPurchased(productCount, _product.name, _product.price, _product.imageHash, _product.category , _product.description , msg.sender, true);\r\n    }\r\n}\r\n",
  "sourcePath": "F:/Eternity/marketplace/src/contracts/Marketplace.sol",
  "compiler": {
    "name": "solc",
    "version": "0.8.6+commit.11564f7e.Emscripten.clang"
  },
  "schemaVersion": "3.4.1",
  "updatedAt": "2021-07-26T04:35:15.580Z",
  "networkType": "ethereum",
  "devdoc": {
    "kind": "dev",
    "methods": {},
    "version": 1
  },
  "userdoc": {
    "kind": "user",
    "methods": {},
    "version": 1
  }
}